{
  "transactions": [
    {
      "hash": "0x1c81812a227babb145bcd0cce08e8e99b21d1ac79561b0e8517d37cff38fb5fe",
      "transactionType": "CALL",
      "contractName": null,
      "contractAddress": "0xc1094f7cc970de375a51e7203e8f211f088ed154",
      "function": "applyChainUpdates((uint64,bool,bytes,bytes,(bool,uint128,uint128),(bool,uint128,uint128))[])",
      "arguments": [
        "[(3478487238524512106, true, 0x00000000000000000000000098182d49963eaa7ff6a947aa354fd6f7f38e8c85, 0x0000000000000000000000000b21758f69fb4cf6e016c82346cfaf4d9ac4ea69, (false, 0, 0), (false, 0, 0))]"
      ],
      "transaction": {
        "from": "0xa17551985a9d16c7ffac10f0d199833a78c33e58",
        "to": "0xc1094f7cc970de375a51e7203e8f211f088ed154",
        "gas": "0x553a3",
        "value": "0x0",
        "input": "0xdb6327dc000000000000000000000000000000000000000000000000000000000000002000000000000000000000000000000000000000000000000000000000000000010000000000000000000000000000000000000000000000000000000000000020000000000000000000000000000000000000000000000000304611b6affba76a000000000000000000000000000000000000000000000000000000000000000100000000000000000000000000000000000000000000000000000000000001400000000000000000000000000000000000000000000000000000000000000180000000000000000000000000000000000000000000000000000000000000000000000000000000000000000000000000000000000000000000000000000000000000000000000000000000000000000000000000000000000000000000000000000000000000000000000000000000000000000000000000000000000000000000000000000000000000000000000000000000000000000000000000000000000000000000000000000000000000000000000000000000000000000000000000000000000000000000000000000000000000000000000000000000000000002000000000000000000000000098182d49963eaa7ff6a947aa354fd6f7f38e8c8500000000000000000000000000000000000000000000000000000000000000200000000000000000000000000b21758f69fb4cf6e016c82346cfaf4d9ac4ea69",
        "nonce": "0x38",
        "chainId": "0xaa36a7"
      },
      "additionalContracts": [],
      "isFixedGasLimit": false
    }
  ],
  "receipts": [
    {
      "status": "0x1",
      "cumulativeGasUsed": "0x1f49d4d",
      "logs": [
        {
          "address": "0xc1094f7cc970de375a51e7203e8f211f088ed154",
          "topics": [
            "0x8d340f17e19058004c20453540862a9c62778504476f6756755cb33bcd6c38c2"
          ],
          "data": "0x000000000000000000000000000000000000000000000000304611b6affba76a000000000000000000000000000000000000000000000000000000000000010000000000000000000000000000000000000000000000000000000000000000000000000000000000000000000000000000000000000000000000000000000000000000000000000000000000000000000000000000000000000000000000000000000000000000000000000000000000000000000000000000000000000000000000000000000000000000000000000000000000000000000000000000000000000000000000000000000000000000000000000000000000000000000000000000000000000000000000000000000000000000000000000000000000000000200000000000000000000000000b21758f69fb4cf6e016c82346cfaf4d9ac4ea69",
          "blockHash": "0x1f25b257a24a35fb349ec0c5ec806419e6c927f9fc892a10c6c8febc6985f476",
          "blockNumber": "0x861dc0",
          "blockTimestamp": "0x687a09b0",
          "transactionHash": "0x1c81812a227babb145bcd0cce08e8e99b21d1ac79561b0e8517d37cff38fb5fe",
          "transactionIndex": "0x8f",
          "logIndex": "0x105",
          "removed": false
        }
      ],
      "logsBloom": "0x00000000000000400000000000000000000000000000000000000000000000000400000000000000000000000000000000000010000000000004000000000000000000000000000000000000000000000000000000000000000000000000000000000000000000000000000000200000000000000000000000000000000000000000000000000000000000000000000000000000000000000000000000000000000000000000000000000000000000000000000000000000000000000000000000000000000000000000000000000000000000000000000000000000000000000000000000000000000000000000000000000000000000000100000000000000",
      "type": "0x2",
      "transactionHash": "0x1c81812a227babb145bcd0cce08e8e99b21d1ac79561b0e8517d37cff38fb5fe",
      "transactionIndex": "0x8f",
      "blockHash": "0x1f25b257a24a35fb349ec0c5ec806419e6c927f9fc892a10c6c8febc6985f476",
      "blockNumber": "0x861dc0",
      "gasUsed": "0x3db40",
      "effectiveGasPrice": "0xf4490",
      "from": "0xa17551985a9d16c7ffac10f0d199833a78c33e58",
      "to": "0xc1094f7cc970de375a51e7203e8f211f088ed154",
      "contractAddress": null
    }
  ],
  "libraries": [],
  "pending": [],
  "returns": {},
  "timestamp": 1752828337,
  "chain": 11155111,
  "commit": "356d800"
}