{
  "transactions": [
    {
      "hash": "0x9fd480ad82714746ca78915960557aaa4a9883d385d9437ccd6b3690d43e8f02",
      "transactionType": "CALL",
      "contractName": null,
      "contractAddress": "0x98182d49963eaa7ff6a947aa354fd6f7f38e8c85",
      "function": "applyChainUpdates((uint64,bool,bytes,bytes,(bool,uint128,uint128),(bool,uint128,uint128))[])",
      "arguments": [
        "[(16015286601757825753, true, 0x000000000000000000000000c1094f7cc970de375a51e7203e8f211f088ed154, 0x000000000000000000000000a20ec11eadbd9064b980c050b528daf454bff712, (false, 0, 0), (false, 0, 0))]"
      ],
      "transaction": {
        "from": "0xa17551985a9d16c7ffac10f0d199833a78c33e58",
        "to": "0x98182d49963eaa7ff6a947aa354fd6f7f38e8c85",
        "gas": "0x51389",
        "value": "0x0",
        "input": "0xdb6327dc000000000000000000000000000000000000000000000000000000000000002000000000000000000000000000000000000000000000000000000000000000010000000000000000000000000000000000000000000000000000000000000020000000000000000000000000000000000000000000000000de41ba4fc9d91ad90000000000000000000000000000000000000000000000000000000000000001000000000000000000000000000000000000000000000000000000000000014000000000000000000000000000000000000000000000000000000000000001800000000000000000000000000000000000000000000000000000000000000000000000000000000000000000000000000000000000000000000000000000000000000000000000000000000000000000000000000000000000000000000000000000000000000000000000000000000000000000000000000000000000000000000000000000000000000000000000000000000000000000000000000000000000000000000000000000000000000000000000000000000000000000000000000000000000000000000000000000000000000000000000000000000000000020000000000000000000000000c1094f7cc970de375a51e7203e8f211f088ed1540000000000000000000000000000000000000000000000000000000000000020000000000000000000000000a20ec11eadbd9064b980c050b528daf454bff712",
        "nonce": "0x12",
        "chainId": "0x66eee"
      },
      "additionalContracts": [],
      "isFixedGasLimit": false
    }
  ],
  "receipts": [
    {
      "status": "0x1",
      "cumulativeGasUsed": "0x5a16e",
      "logs": [
        {
          "address": "0x98182d49963eaa7ff6a947aa354fd6f7f38e8c85",
          "topics": [
            "0x8d340f17e19058004c20453540862a9c62778504476f6756755cb33bcd6c38c2"
          ],
          "data": "0x000000000000000000000000000000000000000000000000de41ba4fc9d91ad900000000000000000000000000000000000000000000000000000000000001000000000000000000000000000000000000000000000000000000000000000000000000000000000000000000000000000000000000000000000000000000000000000000000000000000000000000000000000000000000000000000000000000000000000000000000000000000000000000000000000000000000000000000000000000000000000000000000000000000000000000000000000000000000000000000000000000000000000000000000000000000000000000000000000000000000000000000000000000000000000000000000000000000000000000020000000000000000000000000a20ec11eadbd9064b980c050b528daf454bff712",
          "blockHash": "0xf9206016edcac96bfed681f8516d460a44e821e68c5cf2d691bbb246536ed41c",
          "blockNumber": "0xa6ad09e",
          "transactionHash": "0x9fd480ad82714746ca78915960557aaa4a9883d385d9437ccd6b3690d43e8f02",
          "transactionIndex": "0x2",
          "logIndex": "0x4",
          "removed": false
        }
      ],
      "logsBloom": "0x00000000000000400000000000000000000000000000000000000000000000000000000000000000000000000000000800000000000000000004000000000000000000000000000000000000000000000000000000040000000000000000000000000000000000000000000000000000000000000000000000000000000000000000004000000000000000000000000000000000000000000000000000000000000000000000000000000000000000000000000000000000000000000000000000000000000000000000000000000000000000000000000000000000000000000000000000000000000000000000000000000000000000000100000000000000",
      "type": "0x2",
      "transactionHash": "0x9fd480ad82714746ca78915960557aaa4a9883d385d9437ccd6b3690d43e8f02",
      "transactionIndex": "0x2",
      "blockHash": "0xf9206016edcac96bfed681f8516d460a44e821e68c5cf2d691bbb246536ed41c",
      "blockNumber": "0xa6ad09e",
      "gasUsed": "0x3db40",
      "effectiveGasPrice": "0x5f5e100",
      "from": "0xa17551985a9d16c7ffac10f0d199833a78c33e58",
      "to": "0x98182d49963eaa7ff6a947aa354fd6f7f38e8c85",
      "contractAddress": null,
      "gasUsedForL1": "0x0",
      "l1BlockNumber": "0x861e91",
      "timeboosted": false
    }
  ],
  "libraries": [],
  "pending": [],
  "returns": {},
  "timestamp": 1752830857,
  "chain": 421614,
  "commit": "356d800"
}