{
  "transactions": [
    {
      "hash": "0x94438bcee506b18545990ca97259d65337823646d9ed5e311d569233920ca0fc",
      "transactionType": "CALL",
      "contractName": null,
      "contractAddress": "0x779877a7b0d9e8603169ddbd7836e478b4624789",
      "function": "approve(address,uint256)",
      "arguments": [
        "0x0BF3dE8c5D3e8A2B34D2BEeB17ABfCeBaf363A59",
        "24951656246796720"
      ],
      "transaction": {
        "from": "0xa17551985a9d16c7ffac10f0d199833a78c33e58",
        "to": "0x779877a7b0d9e8603169ddbd7836e478b4624789",
        "gas": "0x1081f",
        "value": "0x0",
        "input": "0x095ea7b30000000000000000000000000bf3de8c5d3e8a2b34d2beeb17abfcebaf363a590000000000000000000000000000000000000000000000000058a5662f25e1b0",
        "nonce": "0x3d",
        "chainId": "0xaa36a7"
      },
      "additionalContracts": [],
      "isFixedGasLimit": false
    },
    {
      "hash": "0x91bf9f2d715b81a5dbe494aae48dff0fcaca37766d0320cef5baaec5db4ba485",
      "transactionType": "CALL",
      "contractName": null,
      "contractAddress": "0xa20ec11eadbd9064b980c050b528daf454bff712",
      "function": "approve(address,uint256)",
      "arguments": [
        "0x0BF3dE8c5D3e8A2B34D2BEeB17ABfCeBaf363A59",
        "50000000000"
      ],
      "transaction": {
        "from": "0xa17551985a9d16c7ffac10f0d199833a78c33e58",
        "to": "0xa20ec11eadbd9064b980c050b528daf454bff712",
        "gas": "0x105fc",
        "value": "0x0",
        "input": "0x095ea7b30000000000000000000000000bf3de8c5d3e8a2b34d2beeb17abfcebaf363a590000000000000000000000000000000000000000000000000000000ba43b7400",
        "nonce": "0x3e",
        "chainId": "0xaa36a7"
      },
      "additionalContracts": [],
      "isFixedGasLimit": false
    },
    {
      "hash": "0xe32753454b18a885f8e45d5ab7b38239a72ae955928a3cf101835a10c725258e",
      "transactionType": "CALL",
      "contractName": null,
      "contractAddress": "0x0bf3de8c5d3e8a2b34d2beeb17abfcebaf363a59",
      "function": "ccipSend(uint64,(bytes,bytes,(address,uint256)[],address,bytes))",
      "arguments": [
        "3478487238524512106",
        "(0x000000000000000000000000a17551985a9d16c7ffac10f0d199833a78c33e58, 0x, [(0xA20Ec11EadBd9064B980C050b528dAF454Bff712, 50000000000)], 0x779877A7B0D9E8603169DdbD7836e478b4624789, 0x97a657c90000000000000000000000000000000000000000000000000000000000000000)"
      ],
      "transaction": {
        "from": "0xa17551985a9d16c7ffac10f0d199833a78c33e58",
        "to": "0x0bf3de8c5d3e8a2b34d2beeb17abfcebaf363a59",
        "gas": "0x571ee",
        "value": "0x0",
        "input": "0x96f4e9f9000000000000000000000000000000000000000000000000304611b6affba76a000000000000000000000000000000000000000000000000000000000000004000000000000000000000000000000000000000000000000000000000000000a000000000000000000000000000000000000000000000000000000000000000e00000000000000000000000000000000000000000000000000000000000000100000000000000000000000000779877a7b0d9e8603169ddbd7836e478b462478900000000000000000000000000000000000000000000000000000000000001600000000000000000000000000000000000000000000000000000000000000020000000000000000000000000a17551985a9d16c7ffac10f0d199833a78c33e5800000000000000000000000000000000000000000000000000000000000000000000000000000000000000000000000000000000000000000000000000000001000000000000000000000000a20ec11eadbd9064b980c050b528daf454bff7120000000000000000000000000000000000000000000000000000000ba43b7400000000000000000000000000000000000000000000000000000000000000002497a657c9000000000000000000000000000000000000000000000000000000000000000000000000000000000000000000000000000000000000000000000000",
        "nonce": "0x3f",
        "chainId": "0xaa36a7"
      },
      "additionalContracts": [],
      "isFixedGasLimit": false
    }
  ],
  "receipts": [
    {
      "status": "0x1",
      "cumulativeGasUsed": "0x1a99276",
      "logs": [
        {
          "address": "0x779877a7b0d9e8603169ddbd7836e478b4624789",
          "topics": [
            "0x8c5be1e5ebec7d5bd14f71427d1e84f3dd0314c0f7b2291e5b200ac8c7c3b925",
            "0x000000000000000000000000a17551985a9d16c7ffac10f0d199833a78c33e58",
            "0x0000000000000000000000000bf3de8c5d3e8a2b34d2beeb17abfcebaf363a59"
          ],
          "data": "0x0000000000000000000000000000000000000000000000000058a5662f25e1b0",
          "blockHash": "0x3f6dd655cacc762287d00d1db6f8aa30d65c2a2928eed98e9081ebc5cf40abe9",
          "blockNumber": "0x862033",
          "blockTimestamp": "0x687a2714",
          "transactionHash": "0x94438bcee506b18545990ca97259d65337823646d9ed5e311d569233920ca0fc",
          "transactionIndex": "0x107",
          "logIndex": "0x26e",
          "removed": false
        }
      ],
      "logsBloom": "0x00000004000040000000000000000000000000000000000000000000000000000000000000000000000000000000000000000000000000000000000000200000000000000000000000000000000000000000000000000000000000000000000000000000000100000000000000000000000000000000000000000000000000008000000000000000000000000000800000000000000000000000000000000000020000000000080000000000000000000000000000000000000000002000000000000000000000000000000000000000000000000000000100000000000000000010000000000000000000000000000040000000000000000000000000000000",
      "type": "0x2",
      "transactionHash": "0x94438bcee506b18545990ca97259d65337823646d9ed5e311d569233920ca0fc",
      "transactionIndex": "0x107",
      "blockHash": "0x3f6dd655cacc762287d00d1db6f8aa30d65c2a2928eed98e9081ebc5cf40abe9",
      "blockNumber": "0x862033",
      "gasUsed": "0xb499",
      "effectiveGasPrice": "0x253b2a",
      "from": "0xa17551985a9d16c7ffac10f0d199833a78c33e58",
      "to": "0x779877a7b0d9e8603169ddbd7836e478b4624789",
      "contractAddress": null
    },
    {
      "status": "0x1",
      "cumulativeGasUsed": "0x1aa5023",
      "logs": [
        {
          "address": "0xa20ec11eadbd9064b980c050b528daf454bff712",
          "topics": [
            "0x8c5be1e5ebec7d5bd14f71427d1e84f3dd0314c0f7b2291e5b200ac8c7c3b925",
            "0x000000000000000000000000a17551985a9d16c7ffac10f0d199833a78c33e58",
            "0x0000000000000000000000000bf3de8c5d3e8a2b34d2beeb17abfcebaf363a59"
          ],
          "data": "0x0000000000000000000000000000000000000000000000000000000ba43b7400",
          "blockHash": "0x3f6dd655cacc762287d00d1db6f8aa30d65c2a2928eed98e9081ebc5cf40abe9",
          "blockNumber": "0x862033",
          "blockTimestamp": "0x687a2714",
          "transactionHash": "0x91bf9f2d715b81a5dbe494aae48dff0fcaca37766d0320cef5baaec5db4ba485",
          "transactionIndex": "0x108",
          "logIndex": "0x26f",
          "removed": false
        }
      ],
      "logsBloom": "0x00000000000040000000000000000000000000000000000000000000000000000000000000000000000000000000000000000000000000000000000000200000000000000000000000000000000000000000000000000100000000000000000000000000000100000000000000000000000000000000000000000000000000008000000000000000000000000000000000000000000000000000000000000000020000000000080000000000000000000000000000000000000000002000000000000000000000000000000000000000000000000000000000000000080000000010000000000000000000000000000040000000000000000000000010000000",
      "type": "0x2",
      "transactionHash": "0x91bf9f2d715b81a5dbe494aae48dff0fcaca37766d0320cef5baaec5db4ba485",
      "transactionIndex": "0x108",
      "blockHash": "0x3f6dd655cacc762287d00d1db6f8aa30d65c2a2928eed98e9081ebc5cf40abe9",
      "blockNumber": "0x862033",
      "gasUsed": "0xbdad",
      "effectiveGasPrice": "0x253b2a",
      "from": "0xa17551985a9d16c7ffac10f0d199833a78c33e58",
      "to": "0xa20ec11eadbd9064b980c050b528daf454bff712",
      "contractAddress": null
    },
    {
      "status": "0x1",
      "cumulativeGasUsed": "0x1ae4152",
      "logs": [
        {
          "address": "0x779877a7b0d9e8603169ddbd7836e478b4624789",
          "topics": [
            "0xddf252ad1be2c89b69c2b068fc378daa952ba7f163c4a11628f55a4df523b3ef",
            "0x000000000000000000000000a17551985a9d16c7ffac10f0d199833a78c33e58",
            "0x000000000000000000000000bc09627e58989ba8f1eda775e486467d2a00944f"
          ],
          "data": "0x0000000000000000000000000000000000000000000000000058a5662f25e1b0",
          "blockHash": "0x3f6dd655cacc762287d00d1db6f8aa30d65c2a2928eed98e9081ebc5cf40abe9",
          "blockNumber": "0x862033",
          "blockTimestamp": "0x687a2714",
          "transactionHash": "0xe32753454b18a885f8e45d5ab7b38239a72ae955928a3cf101835a10c725258e",
          "transactionIndex": "0x109",
          "logIndex": "0x270",
          "removed": false
        },
        {
          "address": "0x779877a7b0d9e8603169ddbd7836e478b4624789",
          "topics": [
            "0x8c5be1e5ebec7d5bd14f71427d1e84f3dd0314c0f7b2291e5b200ac8c7c3b925",
            "0x000000000000000000000000a17551985a9d16c7ffac10f0d199833a78c33e58",
            "0x0000000000000000000000000bf3de8c5d3e8a2b34d2beeb17abfcebaf363a59"
          ],
          "data": "0x0000000000000000000000000000000000000000000000000000000000000000",
          "blockHash": "0x3f6dd655cacc762287d00d1db6f8aa30d65c2a2928eed98e9081ebc5cf40abe9",
          "blockNumber": "0x862033",
          "blockTimestamp": "0x687a2714",
          "transactionHash": "0xe32753454b18a885f8e45d5ab7b38239a72ae955928a3cf101835a10c725258e",
          "transactionIndex": "0x109",
          "logIndex": "0x271",
          "removed": false
        },
        {
          "address": "0xa20ec11eadbd9064b980c050b528daf454bff712",
          "topics": [
            "0xddf252ad1be2c89b69c2b068fc378daa952ba7f163c4a11628f55a4df523b3ef",
            "0x0000000000000000000000000000000000000000000000000000000000000000",
            "0x0000000000000000000000000bf3de8c5d3e8a2b34d2beeb17abfcebaf363a59"
          ],
          "data": "0x0000000000000000000000000000000000000000000000000000000000000000",
          "blockHash": "0x3f6dd655cacc762287d00d1db6f8aa30d65c2a2928eed98e9081ebc5cf40abe9",
          "blockNumber": "0x862033",
          "blockTimestamp": "0x687a2714",
          "transactionHash": "0xe32753454b18a885f8e45d5ab7b38239a72ae955928a3cf101835a10c725258e",
          "transactionIndex": "0x109",
          "logIndex": "0x272",
          "removed": false
        },
        {
          "address": "0xa20ec11eadbd9064b980c050b528daf454bff712",
          "topics": [
            "0xddf252ad1be2c89b69c2b068fc378daa952ba7f163c4a11628f55a4df523b3ef",
            "0x0000000000000000000000000000000000000000000000000000000000000000",
            "0x000000000000000000000000c1094f7cc970de375a51e7203e8f211f088ed154"
          ],
          "data": "0x0000000000000000000000000000000000000000000000000000000000000000",
          "blockHash": "0x3f6dd655cacc762287d00d1db6f8aa30d65c2a2928eed98e9081ebc5cf40abe9",
          "blockNumber": "0x862033",
          "blockTimestamp": "0x687a2714",
          "transactionHash": "0xe32753454b18a885f8e45d5ab7b38239a72ae955928a3cf101835a10c725258e",
          "transactionIndex": "0x109",
          "logIndex": "0x273",
          "removed": false
        },
        {
          "address": "0xa20ec11eadbd9064b980c050b528daf454bff712",
          "topics": [
            "0xddf252ad1be2c89b69c2b068fc378daa952ba7f163c4a11628f55a4df523b3ef",
            "0x000000000000000000000000a17551985a9d16c7ffac10f0d199833a78c33e58",
            "0x000000000000000000000000c1094f7cc970de375a51e7203e8f211f088ed154"
          ],
          "data": "0x0000000000000000000000000000000000000000000000000000000ba43b7400",
          "blockHash": "0x3f6dd655cacc762287d00d1db6f8aa30d65c2a2928eed98e9081ebc5cf40abe9",
          "blockNumber": "0x862033",
          "blockTimestamp": "0x687a2714",
          "transactionHash": "0xe32753454b18a885f8e45d5ab7b38239a72ae955928a3cf101835a10c725258e",
          "transactionIndex": "0x109",
          "logIndex": "0x274",
          "removed": false
        },
        {
          "address": "0xa20ec11eadbd9064b980c050b528daf454bff712",
          "topics": [
            "0xddf252ad1be2c89b69c2b068fc378daa952ba7f163c4a11628f55a4df523b3ef",
            "0x0000000000000000000000000000000000000000000000000000000000000000",
            "0x000000000000000000000000c1094f7cc970de375a51e7203e8f211f088ed154"
          ],
          "data": "0x0000000000000000000000000000000000000000000000000000000000000000",
          "blockHash": "0x3f6dd655cacc762287d00d1db6f8aa30d65c2a2928eed98e9081ebc5cf40abe9",
          "blockNumber": "0x862033",
          "blockTimestamp": "0x687a2714",
          "transactionHash": "0xe32753454b18a885f8e45d5ab7b38239a72ae955928a3cf101835a10c725258e",
          "transactionIndex": "0x109",
          "logIndex": "0x275",
          "removed": false
        },
        {
          "address": "0xa20ec11eadbd9064b980c050b528daf454bff712",
          "topics": [
            "0xddf252ad1be2c89b69c2b068fc378daa952ba7f163c4a11628f55a4df523b3ef",
            "0x000000000000000000000000c1094f7cc970de375a51e7203e8f211f088ed154",
            "0x0000000000000000000000000000000000000000000000000000000000000000"
          ],
          "data": "0x0000000000000000000000000000000000000000000000000000000ba43b7400",
          "blockHash": "0x3f6dd655cacc762287d00d1db6f8aa30d65c2a2928eed98e9081ebc5cf40abe9",
          "blockNumber": "0x862033",
          "blockTimestamp": "0x687a2714",
          "transactionHash": "0xe32753454b18a885f8e45d5ab7b38239a72ae955928a3cf101835a10c725258e",
          "transactionIndex": "0x109",
          "logIndex": "0x276",
          "removed": false
        },
        {
          "address": "0xbc09627e58989ba8f1eda775e486467d2a00944f",
          "topics": [
            "0xd0c3c799bf9e2639de44391e7f524d229b2b55f5b1ea94b2bf7da42f7243dddd"
          ],
          "data": "0x0000000000000000000000000000000000000000000000000000000000000020000000000000000000000000000000000000000000000000de41ba4fc9d91ad9000000000000000000000000a17551985a9d16c7ffac10f0d199833a78c33e58000000000000000000000000a17551985a9d16c7ffac10f0d199833a78c33e5800000000000000000000000000000000000000000000000000000000000021dc000000000000000000000000000000000000000000000000000000000000000000000000000000000000000000000000000000000000000000000000000000000000000000000000000000000000000000000000000000000000000000000003000000000000000000000000779877a7b0d9e8603169ddbd7836e478b46247890000000000000000000000000000000000000000000000000058a5662f25e1b000000000000000000000000000000000000000000000000000000000000001a000000000000000000000000000000000000000000000000000000000000001c000000000000000000000000000000000000000000000000000000000000002202d4428a0d8cfed6619fa41b38e541c4297cd86eb1e2a682afba80ea76771bc8700000000000000000000000000000000000000000000000000000000000000000000000000000000000000000000000000000000000000000000000000000001000000000000000000000000a20ec11eadbd9064b980c050b528daf454bff7120000000000000000000000000000000000000000000000000000000ba43b74000000000000000000000000000000000000000000000000000000000000000001000000000000000000000000000000000000000000000000000000000000002000000000000000000000000000000000000000000000000000000000000001600000000000000000000000000000000000000000000000000000000000000020000000000000000000000000000000000000000000000000000000000000008000000000000000000000000000000000000000000000000000000000000000c000000000000000000000000000000000000000000000000000000000000001000000000000000000000000000000000000000000000000000000000000015f900000000000000000000000000000000000000000000000000000000000000020000000000000000000000000c1094f7cc970de375a51e7203e8f211f088ed15400000000000000000000000000000000000000000000000000000000000000200000000000000000000000000b21758f69fb4cf6e016c82346cfaf4d9ac4ea6900000000000000000000000000000000000000000000000000000000000000200000000000000000000000000000000000000000000000000000000ba43b7400",
          "blockHash": "0x3f6dd655cacc762287d00d1db6f8aa30d65c2a2928eed98e9081ebc5cf40abe9",
          "blockNumber": "0x862033",
          "blockTimestamp": "0x687a2714",
          "transactionHash": "0xe32753454b18a885f8e45d5ab7b38239a72ae955928a3cf101835a10c725258e",
          "transactionIndex": "0x109",
          "logIndex": "0x277",
          "removed": false
        }
      ],
      "logsBloom": "0x000000040800400000000000000000000000000000000000000000000000000000000000000000000000000000000000000000000000000000000000002000000001000000000000000000080000000000000000000001000000000000000000000200000201000000000000000008000000000000000000000000100000000080000000000000000000000000008000000000000000000000002000000000000a0000000000080400400000000000000000000000000000000100002000000000000002000000000000000002000000000000000000000100000000080030000010000000000000000000000000000044000000000000040000000010000000",
      "type": "0x2",
      "transactionHash": "0xe32753454b18a885f8e45d5ab7b38239a72ae955928a3cf101835a10c725258e",
      "transactionIndex": "0x109",
      "blockHash": "0x3f6dd655cacc762287d00d1db6f8aa30d65c2a2928eed98e9081ebc5cf40abe9",
      "blockNumber": "0x862033",
      "gasUsed": "0x3f12f",
      "effectiveGasPrice": "0x253b2a",
      "from": "0xa17551985a9d16c7ffac10f0d199833a78c33e58",
      "to": "0x0bf3de8c5d3e8a2b34d2beeb17abfcebaf363a59",
      "contractAddress": null
    }
  ],
  "libraries": [],
  "pending": [],
  "returns": {},
  "timestamp": 1752835862,
  "chain": 11155111,
  "commit": "356d800"
}