{
  "transactions": [
    {
      "hash": "0xd4f1da3c80a39dfd72ceae007316da997477c96facf3194f9ac57e9834291f7a",
      "transactionType": "CALL",
      "contractName": null,
      "contractAddress": "0x779877a7b0d9e8603169ddbd7836e478b4624789",
      "function": "approve(address,uint256)",
      "arguments": [
        "0x0BF3dE8c5D3e8A2B34D2BEeB17ABfCeBaf363A59",
        "25011477495690023"
      ],
      "transaction": {
        "from": "0xa17551985a9d16c7ffac10f0d199833a78c33e58",
        "to": "0x779877a7b0d9e8603169ddbd7836e478b4624789",
        "gas": "0x1081f",
        "value": "0x0",
        "input": "0x095ea7b30000000000000000000000000bf3de8c5d3e8a2b34d2beeb17abfcebaf363a590000000000000000000000000000000000000000000000000058dbce67703327",
        "nonce": "0x3a",
        "chainId": "0xaa36a7"
      },
      "additionalContracts": [],
      "isFixedGasLimit": false
    },
    {
      "hash": "0x3935969b04d1e867a75f70989b6cbfdcd81f870c8ea941ad59eae6b4dd38ab00",
      "transactionType": "CALL",
      "contractName": null,
      "contractAddress": "0xa20ec11eadbd9064b980c050b528daf454bff712",
      "function": "approve(address,uint256)",
      "arguments": [
        "0x0BF3dE8c5D3e8A2B34D2BEeB17ABfCeBaf363A59",
        "5000000000000000"
      ],
      "transaction": {
        "from": "0xa17551985a9d16c7ffac10f0d199833a78c33e58",
        "to": "0xa20ec11eadbd9064b980c050b528daf454bff712",
        "gas": "0x1061e",
        "value": "0x0",
        "input": "0x095ea7b30000000000000000000000000bf3de8c5d3e8a2b34d2beeb17abfcebaf363a590000000000000000000000000000000000000000000000000011c37937e08000",
        "nonce": "0x3b",
        "chainId": "0xaa36a7"
      },
      "additionalContracts": [],
      "isFixedGasLimit": false
    },
    {
      "hash": "0x1a62fe451dabf49ab82eacad4a17163d4279ce16e60515c2c23b38a0702db144",
      "transactionType": "CALL",
      "contractName": null,
      "contractAddress": "0x0bf3de8c5d3e8a2b34d2beeb17abfcebaf363a59",
      "function": "ccipSend(uint64,(bytes,bytes,(address,uint256)[],address,bytes))",
      "arguments": [
        "3478487238524512106",
        "(0x000000000000000000000000a17551985a9d16c7ffac10f0d199833a78c33e58, 0x, [(0xA20Ec11EadBd9064B980C050b528dAF454Bff712, 5000000000000000)], 0x779877A7B0D9E8603169DdbD7836e478b4624789, 0x97a657c90000000000000000000000000000000000000000000000000000000000000000)"
      ],
      "transaction": {
        "from": "0xa17551985a9d16c7ffac10f0d199833a78c33e58",
        "to": "0x0bf3de8c5d3e8a2b34d2beeb17abfcebaf363a59",
        "gas": "0x62a96",
        "value": "0x0",
        "input": "0x96f4e9f9000000000000000000000000000000000000000000000000304611b6affba76a000000000000000000000000000000000000000000000000000000000000004000000000000000000000000000000000000000000000000000000000000000a000000000000000000000000000000000000000000000000000000000000000e00000000000000000000000000000000000000000000000000000000000000100000000000000000000000000779877a7b0d9e8603169ddbd7836e478b462478900000000000000000000000000000000000000000000000000000000000001600000000000000000000000000000000000000000000000000000000000000020000000000000000000000000a17551985a9d16c7ffac10f0d199833a78c33e5800000000000000000000000000000000000000000000000000000000000000000000000000000000000000000000000000000000000000000000000000000001000000000000000000000000a20ec11eadbd9064b980c050b528daf454bff7120000000000000000000000000000000000000000000000000011c37937e08000000000000000000000000000000000000000000000000000000000000000002497a657c9000000000000000000000000000000000000000000000000000000000000000000000000000000000000000000000000000000000000000000000000",
        "nonce": "0x3c",
        "chainId": "0xaa36a7"
      },
      "additionalContracts": [],
      "isFixedGasLimit": false
    }
  ],
  "receipts": [
    {
      "status": "0x1",
      "cumulativeGasUsed": "0xfb0f4e",
      "logs": [
        {
          "address": "0x779877a7b0d9e8603169ddbd7836e478b4624789",
          "topics": [
            "0x8c5be1e5ebec7d5bd14f71427d1e84f3dd0314c0f7b2291e5b200ac8c7c3b925",
            "0x000000000000000000000000a17551985a9d16c7ffac10f0d199833a78c33e58",
            "0x0000000000000000000000000bf3de8c5d3e8a2b34d2beeb17abfcebaf363a59"
          ],
          "data": "0x0000000000000000000000000000000000000000000000000058dbce67703327",
          "blockHash": "0x9723edcebf1d1ffd092edaba5cc59c215d2c56c483527aca994deb899493b1d4",
          "blockNumber": "0x861ede",
          "blockTimestamp": "0x687a1718",
          "transactionHash": "0xd4f1da3c80a39dfd72ceae007316da997477c96facf3194f9ac57e9834291f7a",
          "transactionIndex": "0xa4",
          "logIndex": "0x138",
          "removed": false
        }
      ],
      "logsBloom": "0x00000004000040000000000000000000000000000000000000000000000000000000000000000000000000000000000000000000000000000000000000200000000000000000000000000000000000000000000000000000000000000000000000000000000100000000000000000000000000000000000000000000000000008000000000000000000000000000800000000000000000000000000000000000020000000000080000000000000000000000000000000000000000002000000000000000000000000000000000000000000000000000000100000000000000000010000000000000000000000000000040000000000000000000000000000000",
      "type": "0x2",
      "transactionHash": "0xd4f1da3c80a39dfd72ceae007316da997477c96facf3194f9ac57e9834291f7a",
      "transactionIndex": "0xa4",
      "blockHash": "0x9723edcebf1d1ffd092edaba5cc59c215d2c56c483527aca994deb899493b1d4",
      "blockNumber": "0x861ede",
      "gasUsed": "0xb499",
      "effectiveGasPrice": "0xf9351",
      "from": "0xa17551985a9d16c7ffac10f0d199833a78c33e58",
      "to": "0x779877a7b0d9e8603169ddbd7836e478b4624789",
      "contractAddress": null
    },
    {
      "status": "0x1",
      "cumulativeGasUsed": "0xfbcd13",
      "logs": [
        {
          "address": "0xa20ec11eadbd9064b980c050b528daf454bff712",
          "topics": [
            "0x8c5be1e5ebec7d5bd14f71427d1e84f3dd0314c0f7b2291e5b200ac8c7c3b925",
            "0x000000000000000000000000a17551985a9d16c7ffac10f0d199833a78c33e58",
            "0x0000000000000000000000000bf3de8c5d3e8a2b34d2beeb17abfcebaf363a59"
          ],
          "data": "0x0000000000000000000000000000000000000000000000000011c37937e08000",
          "blockHash": "0x9723edcebf1d1ffd092edaba5cc59c215d2c56c483527aca994deb899493b1d4",
          "blockNumber": "0x861ede",
          "blockTimestamp": "0x687a1718",
          "transactionHash": "0x3935969b04d1e867a75f70989b6cbfdcd81f870c8ea941ad59eae6b4dd38ab00",
          "transactionIndex": "0xa5",
          "logIndex": "0x139",
          "removed": false
        }
      ],
      "logsBloom": "0x00000000000040000000000000000000000000000000000000000000000000000000000000000000000000000000000000000000000000000000000000200000000000000000000000000000000000000000000000000100000000000000000000000000000100000000000000000000000000000000000000000000000000008000000000000000000000000000000000000000000000000000000000000000020000000000080000000000000000000000000000000000000000002000000000000000000000000000000000000000000000000000000000000000080000000010000000000000000000000000000040000000000000000000000010000000",
      "type": "0x2",
      "transactionHash": "0x3935969b04d1e867a75f70989b6cbfdcd81f870c8ea941ad59eae6b4dd38ab00",
      "transactionIndex": "0xa5",
      "blockHash": "0x9723edcebf1d1ffd092edaba5cc59c215d2c56c483527aca994deb899493b1d4",
      "blockNumber": "0x861ede",
      "gasUsed": "0xbdc5",
      "effectiveGasPrice": "0xf9351",
      "from": "0xa17551985a9d16c7ffac10f0d199833a78c33e58",
      "to": "0xa20ec11eadbd9064b980c050b528daf454bff712",
      "contractAddress": null
    },
    {
      "status": "0x1",
      "cumulativeGasUsed": "0x10043f2",
      "logs": [
        {
          "address": "0x779877a7b0d9e8603169ddbd7836e478b4624789",
          "topics": [
            "0xddf252ad1be2c89b69c2b068fc378daa952ba7f163c4a11628f55a4df523b3ef",
            "0x000000000000000000000000a17551985a9d16c7ffac10f0d199833a78c33e58",
            "0x000000000000000000000000bc09627e58989ba8f1eda775e486467d2a00944f"
          ],
          "data": "0x0000000000000000000000000000000000000000000000000058dbce67703327",
          "blockHash": "0x9723edcebf1d1ffd092edaba5cc59c215d2c56c483527aca994deb899493b1d4",
          "blockNumber": "0x861ede",
          "blockTimestamp": "0x687a1718",
          "transactionHash": "0x1a62fe451dabf49ab82eacad4a17163d4279ce16e60515c2c23b38a0702db144",
          "transactionIndex": "0xa6",
          "logIndex": "0x13a",
          "removed": false
        },
        {
          "address": "0x779877a7b0d9e8603169ddbd7836e478b4624789",
          "topics": [
            "0x8c5be1e5ebec7d5bd14f71427d1e84f3dd0314c0f7b2291e5b200ac8c7c3b925",
            "0x000000000000000000000000a17551985a9d16c7ffac10f0d199833a78c33e58",
            "0x0000000000000000000000000bf3de8c5d3e8a2b34d2beeb17abfcebaf363a59"
          ],
          "data": "0x0000000000000000000000000000000000000000000000000000000000000000",
          "blockHash": "0x9723edcebf1d1ffd092edaba5cc59c215d2c56c483527aca994deb899493b1d4",
          "blockNumber": "0x861ede",
          "blockTimestamp": "0x687a1718",
          "transactionHash": "0x1a62fe451dabf49ab82eacad4a17163d4279ce16e60515c2c23b38a0702db144",
          "transactionIndex": "0xa6",
          "logIndex": "0x13b",
          "removed": false
        },
        {
          "address": "0xa20ec11eadbd9064b980c050b528daf454bff712",
          "topics": [
            "0xddf252ad1be2c89b69c2b068fc378daa952ba7f163c4a11628f55a4df523b3ef",
            "0x0000000000000000000000000000000000000000000000000000000000000000",
            "0x0000000000000000000000000bf3de8c5d3e8a2b34d2beeb17abfcebaf363a59"
          ],
          "data": "0x0000000000000000000000000000000000000000000000000000000000000000",
          "blockHash": "0x9723edcebf1d1ffd092edaba5cc59c215d2c56c483527aca994deb899493b1d4",
          "blockNumber": "0x861ede",
          "blockTimestamp": "0x687a1718",
          "transactionHash": "0x1a62fe451dabf49ab82eacad4a17163d4279ce16e60515c2c23b38a0702db144",
          "transactionIndex": "0xa6",
          "logIndex": "0x13c",
          "removed": false
        },
        {
          "address": "0xa20ec11eadbd9064b980c050b528daf454bff712",
          "topics": [
            "0xddf252ad1be2c89b69c2b068fc378daa952ba7f163c4a11628f55a4df523b3ef",
            "0x0000000000000000000000000000000000000000000000000000000000000000",
            "0x000000000000000000000000c1094f7cc970de375a51e7203e8f211f088ed154"
          ],
          "data": "0x0000000000000000000000000000000000000000000000000000000000000000",
          "blockHash": "0x9723edcebf1d1ffd092edaba5cc59c215d2c56c483527aca994deb899493b1d4",
          "blockNumber": "0x861ede",
          "blockTimestamp": "0x687a1718",
          "transactionHash": "0x1a62fe451dabf49ab82eacad4a17163d4279ce16e60515c2c23b38a0702db144",
          "transactionIndex": "0xa6",
          "logIndex": "0x13d",
          "removed": false
        },
        {
          "address": "0xa20ec11eadbd9064b980c050b528daf454bff712",
          "topics": [
            "0xddf252ad1be2c89b69c2b068fc378daa952ba7f163c4a11628f55a4df523b3ef",
            "0x000000000000000000000000a17551985a9d16c7ffac10f0d199833a78c33e58",
            "0x000000000000000000000000c1094f7cc970de375a51e7203e8f211f088ed154"
          ],
          "data": "0x0000000000000000000000000000000000000000000000000011c37937e08000",
          "blockHash": "0x9723edcebf1d1ffd092edaba5cc59c215d2c56c483527aca994deb899493b1d4",
          "blockNumber": "0x861ede",
          "blockTimestamp": "0x687a1718",
          "transactionHash": "0x1a62fe451dabf49ab82eacad4a17163d4279ce16e60515c2c23b38a0702db144",
          "transactionIndex": "0xa6",
          "logIndex": "0x13e",
          "removed": false
        },
        {
          "address": "0xa20ec11eadbd9064b980c050b528daf454bff712",
          "topics": [
            "0xddf252ad1be2c89b69c2b068fc378daa952ba7f163c4a11628f55a4df523b3ef",
            "0x0000000000000000000000000000000000000000000000000000000000000000",
            "0x000000000000000000000000c1094f7cc970de375a51e7203e8f211f088ed154"
          ],
          "data": "0x0000000000000000000000000000000000000000000000000000000000000000",
          "blockHash": "0x9723edcebf1d1ffd092edaba5cc59c215d2c56c483527aca994deb899493b1d4",
          "blockNumber": "0x861ede",
          "blockTimestamp": "0x687a1718",
          "transactionHash": "0x1a62fe451dabf49ab82eacad4a17163d4279ce16e60515c2c23b38a0702db144",
          "transactionIndex": "0xa6",
          "logIndex": "0x13f",
          "removed": false
        },
        {
          "address": "0xa20ec11eadbd9064b980c050b528daf454bff712",
          "topics": [
            "0xddf252ad1be2c89b69c2b068fc378daa952ba7f163c4a11628f55a4df523b3ef",
            "0x000000000000000000000000c1094f7cc970de375a51e7203e8f211f088ed154",
            "0x0000000000000000000000000000000000000000000000000000000000000000"
          ],
          "data": "0x0000000000000000000000000000000000000000000000000011c37937e08000",
          "blockHash": "0x9723edcebf1d1ffd092edaba5cc59c215d2c56c483527aca994deb899493b1d4",
          "blockNumber": "0x861ede",
          "blockTimestamp": "0x687a1718",
          "transactionHash": "0x1a62fe451dabf49ab82eacad4a17163d4279ce16e60515c2c23b38a0702db144",
          "transactionIndex": "0xa6",
          "logIndex": "0x140",
          "removed": false
        },
        {
          "address": "0xbc09627e58989ba8f1eda775e486467d2a00944f",
          "topics": [
            "0xd0c3c799bf9e2639de44391e7f524d229b2b55f5b1ea94b2bf7da42f7243dddd"
          ],
          "data": "0x0000000000000000000000000000000000000000000000000000000000000020000000000000000000000000000000000000000000000000de41ba4fc9d91ad9000000000000000000000000a17551985a9d16c7ffac10f0d199833a78c33e58000000000000000000000000a17551985a9d16c7ffac10f0d199833a78c33e5800000000000000000000000000000000000000000000000000000000000021d8000000000000000000000000000000000000000000000000000000000000000000000000000000000000000000000000000000000000000000000000000000000000000000000000000000000000000000000000000000000000000000000002000000000000000000000000779877a7b0d9e8603169ddbd7836e478b46247890000000000000000000000000000000000000000000000000058dbce6770332700000000000000000000000000000000000000000000000000000000000001a000000000000000000000000000000000000000000000000000000000000001c0000000000000000000000000000000000000000000000000000000000000022037239d0ebabfe84d72c7a327ed094d1c0f2a897344d0e415ef72b5869c10fe4300000000000000000000000000000000000000000000000000000000000000000000000000000000000000000000000000000000000000000000000000000001000000000000000000000000a20ec11eadbd9064b980c050b528daf454bff7120000000000000000000000000000000000000000000000000011c37937e080000000000000000000000000000000000000000000000000000000000000000001000000000000000000000000000000000000000000000000000000000000002000000000000000000000000000000000000000000000000000000000000001600000000000000000000000000000000000000000000000000000000000000020000000000000000000000000000000000000000000000000000000000000008000000000000000000000000000000000000000000000000000000000000000c000000000000000000000000000000000000000000000000000000000000001000000000000000000000000000000000000000000000000000000000000015f900000000000000000000000000000000000000000000000000000000000000020000000000000000000000000c1094f7cc970de375a51e7203e8f211f088ed15400000000000000000000000000000000000000000000000000000000000000200000000000000000000000000b21758f69fb4cf6e016c82346cfaf4d9ac4ea6900000000000000000000000000000000000000000000000000000000000000200000000000000000000000000000000000000000000000000000000ba43b7400",
          "blockHash": "0x9723edcebf1d1ffd092edaba5cc59c215d2c56c483527aca994deb899493b1d4",
          "blockNumber": "0x861ede",
          "blockTimestamp": "0x687a1718",
          "transactionHash": "0x1a62fe451dabf49ab82eacad4a17163d4279ce16e60515c2c23b38a0702db144",
          "transactionIndex": "0xa6",
          "logIndex": "0x141",
          "removed": false
        }
      ],
      "logsBloom": "0x000000040800400000000000000000000000000000000000000000000000000000000000000000000000000000000000000000000000000000000000002000000001000000000000000000080000000000000000000001000000000000000000000200000201000000000000000008000000000000000000000000100000000080000000000000000000000000008000000000000000000000002000000000000a0000000000080400400000000000000000000000000000000100002000000000000002000000000000000002000000000000000000000100000000080030000010000000000000000000000000000044000000000000040000000010000000",
      "type": "0x2",
      "transactionHash": "0x1a62fe451dabf49ab82eacad4a17163d4279ce16e60515c2c23b38a0702db144",
      "transactionIndex": "0xa6",
      "blockHash": "0x9723edcebf1d1ffd092edaba5cc59c215d2c56c483527aca994deb899493b1d4",
      "blockNumber": "0x861ede",
      "gasUsed": "0x476df",
      "effectiveGasPrice": "0xf9351",
      "from": "0xa17551985a9d16c7ffac10f0d199833a78c33e58",
      "to": "0x0bf3de8c5d3e8a2b34d2beeb17abfcebaf363a59",
      "contractAddress": null
    }
  ],
  "libraries": [],
  "pending": [],
  "returns": {},
  "timestamp": 1752831771,
  "chain": 11155111,
  "commit": "356d800"
}